{
  "address": "0x6cf3078346FedAc8714Bc98550DCB85848c15c3C",
  "abi": [
    {
      "inputs": [
        {
          "internalType": "string",
          "name": "_name",
          "type": "string"
        },
        {
          "internalType": "string",
          "name": "_symbol",
          "type": "string"
        },
        {
          "internalType": "string",
          "name": "_baseURI",
          "type": "string"
        }
      ],
      "stateMutability": "nonpayable",
      "type": "constructor"
    },
    {
      "anonymous": false,
      "inputs": [
        {
          "indexed": true,
          "internalType": "address",
          "name": "owner",
          "type": "address"
        },
        {
          "indexed": true,
          "internalType": "address",
          "name": "approved",
          "type": "address"
        },
        {
          "indexed": true,
          "internalType": "uint256",
          "name": "tokenId",
          "type": "uint256"
        }
      ],
      "name": "Approval",
      "type": "event"
    },
    {
      "anonymous": false,
      "inputs": [
        {
          "indexed": true,
          "internalType": "address",
          "name": "owner",
          "type": "address"
        },
        {
          "indexed": true,
          "internalType": "address",
          "name": "operator",
          "type": "address"
        },
        {
          "indexed": false,
          "internalType": "bool",
          "name": "approved",
          "type": "bool"
        }
      ],
      "name": "ApprovalForAll",
      "type": "event"
    },
    {
      "anonymous": false,
      "inputs": [
        {
          "indexed": true,
          "internalType": "address",
          "name": "previousOwner",
          "type": "address"
        },
        {
          "indexed": true,
          "internalType": "address",
          "name": "newOwner",
          "type": "address"
        }
      ],
      "name": "OwnershipTransferred",
      "type": "event"
    },
    {
      "anonymous": false,
      "inputs": [
        {
          "indexed": true,
          "internalType": "address",
          "name": "from",
          "type": "address"
        },
        {
          "indexed": true,
          "internalType": "address",
          "name": "to",
          "type": "address"
        },
        {
          "indexed": true,
          "internalType": "uint256",
          "name": "tokenId",
          "type": "uint256"
        }
      ],
      "name": "Transfer",
      "type": "event"
    },
    {
      "inputs": [
        {
          "internalType": "address",
          "name": "to",
          "type": "address"
        },
        {
          "internalType": "uint256",
          "name": "tokenId",
          "type": "uint256"
        }
      ],
      "name": "approve",
      "outputs": [],
      "stateMutability": "nonpayable",
      "type": "function"
    },
    {
      "inputs": [
        {
          "internalType": "address",
          "name": "owner",
          "type": "address"
        }
      ],
      "name": "balanceOf",
      "outputs": [
        {
          "internalType": "uint256",
          "name": "",
          "type": "uint256"
        }
      ],
      "stateMutability": "view",
      "type": "function"
    },
    {
      "inputs": [
        {
          "internalType": "uint256",
          "name": "tokenId",
          "type": "uint256"
        }
      ],
      "name": "getApproved",
      "outputs": [
        {
          "internalType": "address",
          "name": "",
          "type": "address"
        }
      ],
      "stateMutability": "view",
      "type": "function"
    },
    {
      "inputs": [
        {
          "internalType": "address",
          "name": "owner",
          "type": "address"
        },
        {
          "internalType": "address",
          "name": "operator",
          "type": "address"
        }
      ],
      "name": "isApprovedForAll",
      "outputs": [
        {
          "internalType": "bool",
          "name": "",
          "type": "bool"
        }
      ],
      "stateMutability": "view",
      "type": "function"
    },
    {
      "inputs": [],
      "name": "maxSupply",
      "outputs": [
        {
          "internalType": "uint256",
          "name": "",
          "type": "uint256"
        }
      ],
      "stateMutability": "view",
      "type": "function"
    },
    {
      "inputs": [],
      "name": "mint",
      "outputs": [],
      "stateMutability": "payable",
      "type": "function"
    },
    {
      "inputs": [],
      "name": "name",
      "outputs": [
        {
          "internalType": "string",
          "name": "",
          "type": "string"
        }
      ],
      "stateMutability": "view",
      "type": "function"
    },
    {
      "inputs": [],
      "name": "owner",
      "outputs": [
        {
          "internalType": "address",
          "name": "",
          "type": "address"
        }
      ],
      "stateMutability": "view",
      "type": "function"
    },
    {
      "inputs": [
        {
          "internalType": "uint256",
          "name": "tokenId",
          "type": "uint256"
        }
      ],
      "name": "ownerOf",
      "outputs": [
        {
          "internalType": "address",
          "name": "",
          "type": "address"
        }
      ],
      "stateMutability": "view",
      "type": "function"
    },
    {
      "inputs": [],
      "name": "renounceOwnership",
      "outputs": [],
      "stateMutability": "nonpayable",
      "type": "function"
    },
    {
      "inputs": [
        {
          "internalType": "address",
          "name": "from",
          "type": "address"
        },
        {
          "internalType": "address",
          "name": "to",
          "type": "address"
        },
        {
          "internalType": "uint256",
          "name": "tokenId",
          "type": "uint256"
        }
      ],
      "name": "safeTransferFrom",
      "outputs": [],
      "stateMutability": "nonpayable",
      "type": "function"
    },
    {
      "inputs": [
        {
          "internalType": "address",
          "name": "from",
          "type": "address"
        },
        {
          "internalType": "address",
          "name": "to",
          "type": "address"
        },
        {
          "internalType": "uint256",
          "name": "tokenId",
          "type": "uint256"
        },
        {
          "internalType": "bytes",
          "name": "data",
          "type": "bytes"
        }
      ],
      "name": "safeTransferFrom",
      "outputs": [],
      "stateMutability": "nonpayable",
      "type": "function"
    },
    {
      "inputs": [
        {
          "internalType": "address",
          "name": "operator",
          "type": "address"
        },
        {
          "internalType": "bool",
          "name": "approved",
          "type": "bool"
        }
      ],
      "name": "setApprovalForAll",
      "outputs": [],
      "stateMutability": "nonpayable",
      "type": "function"
    },
    {
      "inputs": [
        {
          "internalType": "string",
          "name": "_newBaseURI",
          "type": "string"
        }
      ],
      "name": "setBaseURI",
      "outputs": [],
      "stateMutability": "nonpayable",
      "type": "function"
    },
    {
      "inputs": [
        {
          "internalType": "bytes4",
          "name": "interfaceId",
          "type": "bytes4"
        }
      ],
      "name": "supportsInterface",
      "outputs": [
        {
          "internalType": "bool",
          "name": "",
          "type": "bool"
        }
      ],
      "stateMutability": "view",
      "type": "function"
    },
    {
      "inputs": [],
      "name": "symbol",
      "outputs": [
        {
          "internalType": "string",
          "name": "",
          "type": "string"
        }
      ],
      "stateMutability": "view",
      "type": "function"
    },
    {
      "inputs": [
        {
          "internalType": "uint256",
          "name": "tokenId",
          "type": "uint256"
        }
      ],
      "name": "tokenURI",
      "outputs": [
        {
          "internalType": "string",
          "name": "",
          "type": "string"
        }
      ],
      "stateMutability": "view",
      "type": "function"
    },
    {
      "inputs": [
        {
          "internalType": "address",
          "name": "from",
          "type": "address"
        },
        {
          "internalType": "address",
          "name": "to",
          "type": "address"
        },
        {
          "internalType": "uint256",
          "name": "tokenId",
          "type": "uint256"
        }
      ],
      "name": "transferFrom",
      "outputs": [],
      "stateMutability": "nonpayable",
      "type": "function"
    },
    {
      "inputs": [
        {
          "internalType": "address",
          "name": "newOwner",
          "type": "address"
        }
      ],
      "name": "transferOwnership",
      "outputs": [],
      "stateMutability": "nonpayable",
      "type": "function"
    }
  ],
  "transactionHash": "0xf14cf7da11dfa9a7f89781d4d93c914ed75d23d8f70bd6c8b6994c05fd06a15f",
  "args": [
    "Pyjamas",
    "PJM",
    "ipfs://QmeSjSinHpPnmXmspMjwiXyN6zS4E9zccariGR3jxcaWtq/"
  ],
  "numDeployments": 1,
  "solcInputHash": "742f7b00931c7d80f23dc064a92b72ac",
  "bytecode": "0x608060405261270e6008553480156200001757600080fd5b50604051620032133803806200321383398181016040528101906200003d9190620004ac565b82826200005f62000053620000ad60201b60201c565b620000b560201b60201c565b8160019080519060200190620000779291906200025f565b508060029080519060200190620000909291906200025f565b505050620000a4816200017960201b60201c565b5050506200064d565b600033905090565b60008060009054906101000a900473ffffffffffffffffffffffffffffffffffffffff169050816000806101000a81548173ffffffffffffffffffffffffffffffffffffffff021916908373ffffffffffffffffffffffffffffffffffffffff1602179055508173ffffffffffffffffffffffffffffffffffffffff168173ffffffffffffffffffffffffffffffffffffffff167f8be0079c531659141344cd1fd0a4f28419497f9722a3daafe3b4186f6b6457e060405160405180910390a35050565b62000189620001a560201b60201c565b8060079080519060200190620001a19291906200025f565b5050565b620001b5620000ad60201b60201c565b73ffffffffffffffffffffffffffffffffffffffff16620001db6200023660201b60201c565b73ffffffffffffffffffffffffffffffffffffffff161462000234576040517f08c379a00000000000000000000000000000000000000000000000000000000081526004016200022b90620005c6565b60405180910390fd5b565b60008060009054906101000a900473ffffffffffffffffffffffffffffffffffffffff16905090565b8280546200026d9062000617565b90600052602060002090601f016020900481019282620002915760008555620002dd565b82601f10620002ac57805160ff1916838001178555620002dd565b82800160010185558215620002dd579182015b82811115620002dc578251825591602001919060010190620002bf565b5b509050620002ec9190620002f0565b5090565b5b808211156200030b576000816000905550600101620002f1565b5090565b6000604051905090565b600080fd5b600080fd5b600080fd5b600080fd5b6000601f19601f8301169050919050565b7f4e487b7100000000000000000000000000000000000000000000000000000000600052604160045260246000fd5b62000378826200032d565b810181811067ffffffffffffffff821117156200039a57620003996200033e565b5b80604052505050565b6000620003af6200030f565b9050620003bd82826200036d565b919050565b600067ffffffffffffffff821115620003e057620003df6200033e565b5b620003eb826200032d565b9050602081019050919050565b60005b8381101562000418578082015181840152602081019050620003fb565b8381111562000428576000848401525b50505050565b6000620004456200043f84620003c2565b620003a3565b90508281526020810184848401111562000464576200046362000328565b5b62000471848285620003f8565b509392505050565b600082601f83011262000491576200049062000323565b5b8151620004a38482602086016200042e565b91505092915050565b600080600060608486031215620004c857620004c762000319565b5b600084015167ffffffffffffffff811115620004e957620004e86200031e565b5b620004f78682870162000479565b935050602084015167ffffffffffffffff8111156200051b576200051a6200031e565b5b620005298682870162000479565b925050604084015167ffffffffffffffff8111156200054d576200054c6200031e565b5b6200055b8682870162000479565b9150509250925092565b600082825260208201905092915050565b7f4f776e61626c653a2063616c6c6572206973206e6f7420746865206f776e6572600082015250565b6000620005ae60208362000565565b9150620005bb8262000576565b602082019050919050565b60006020820190508181036000830152620005e1816200059f565b9050919050565b7f4e487b7100000000000000000000000000000000000000000000000000000000600052602260045260246000fd5b600060028204905060018216806200063057607f821691505b60208210811415620006475762000646620005e8565b5b50919050565b612bb6806200065d6000396000f3fe6080604052600436106101145760003560e01c806370a08231116100a0578063b88d4fde11610064578063b88d4fde1461037c578063c87b56dd146103a5578063d5abeb01146103e2578063e985e9c51461040d578063f2fde38b1461044a57610114565b806370a08231146102a9578063715018a6146102e65780638da5cb5b146102fd57806395d89b4114610328578063a22cb4651461035357610114565b80631249c58b116100e75780631249c58b146101e757806323b872dd146101f157806342842e0e1461021a57806355f804b3146102435780636352211e1461026c57610114565b806301ffc9a71461011957806306fdde0314610156578063081812fc14610181578063095ea7b3146101be575b600080fd5b34801561012557600080fd5b50610140600480360381019061013b9190611b2d565b610473565b60405161014d9190611b75565b60405180910390f35b34801561016257600080fd5b5061016b610555565b6040516101789190611c29565b60405180910390f35b34801561018d57600080fd5b506101a860048036038101906101a39190611c81565b6105e7565b6040516101b59190611cef565b60405180910390f35b3480156101ca57600080fd5b506101e560048036038101906101e09190611d36565b61062d565b005b6101ef610745565b005b3480156101fd57600080fd5b5061021860048036038101906102139190611d76565b610752565b005b34801561022657600080fd5b50610241600480360381019061023c9190611d76565b6107b2565b005b34801561024f57600080fd5b5061026a60048036038101906102659190611efe565b6107d2565b005b34801561027857600080fd5b50610293600480360381019061028e9190611c81565b6107f4565b6040516102a09190611cef565b60405180910390f35b3480156102b557600080fd5b506102d060048036038101906102cb9190611f47565b6108a6565b6040516102dd9190611f83565b60405180910390f35b3480156102f257600080fd5b506102fb61095e565b005b34801561030957600080fd5b50610312610972565b60405161031f9190611cef565b60405180910390f35b34801561033457600080fd5b5061033d61099b565b60405161034a9190611c29565b60405180910390f35b34801561035f57600080fd5b5061037a60048036038101906103759190611fca565b610a2d565b005b34801561038857600080fd5b506103a3600480360381019061039e91906120ab565b610a43565b005b3480156103b157600080fd5b506103cc60048036038101906103c79190611c81565b610aa5565b6040516103d99190611c29565b60405180910390f35b3480156103ee57600080fd5b506103f7610b0d565b6040516104049190611f83565b60405180910390f35b34801561041957600080fd5b50610434600480360381019061042f919061212e565b610b13565b6040516104419190611b75565b60405180910390f35b34801561045657600080fd5b50610471600480360381019061046c9190611f47565b610ba7565b005b60007f80ac58cd000000000000000000000000000000000000000000000000000000007bffffffffffffffffffffffffffffffffffffffffffffffffffffffff1916827bffffffffffffffffffffffffffffffffffffffffffffffffffffffff1916148061053e57507f5b5e139f000000000000000000000000000000000000000000000000000000007bffffffffffffffffffffffffffffffffffffffffffffffffffffffff1916827bffffffffffffffffffffffffffffffffffffffffffffffffffffffff1916145b8061054e575061054d82610c2b565b5b9050919050565b6060600180546105649061219d565b80601f01602080910402602001604051908101604052809291908181526020018280546105909061219d565b80156105dd5780601f106105b2576101008083540402835291602001916105dd565b820191906000526020600020905b8154815290600101906020018083116105c057829003601f168201915b5050505050905090565b60006105f282610c95565b6005600083815260200190815260200160002060009054906101000a900473ffffffffffffffffffffffffffffffffffffffff169050919050565b6000610638826107f4565b90508073ffffffffffffffffffffffffffffffffffffffff168373ffffffffffffffffffffffffffffffffffffffff1614156106a9576040517f08c379a00000000000000000000000000000000000000000000000000000000081526004016106a090612241565b60405180910390fd5b8073ffffffffffffffffffffffffffffffffffffffff166106c8610ce0565b73ffffffffffffffffffffffffffffffffffffffff1614806106f757506106f6816106f1610ce0565b610b13565b5b610736576040517f08c379a000000000000000000000000000000000000000000000000000000000815260040161072d906122d3565b60405180910390fd5b6107408383610ce8565b505050565b610750336001610da1565b565b61076361075d610ce0565b82610dbf565b6107a2576040517f08c379a000000000000000000000000000000000000000000000000000000000815260040161079990612365565b60405180910390fd5b6107ad838383610e54565b505050565b6107cd83838360405180602001604052806000815250610a43565b505050565b6107da6110bb565b80600790805190602001906107f0929190611a1e565b5050565b6000806003600084815260200190815260200160002060009054906101000a900473ffffffffffffffffffffffffffffffffffffffff169050600073ffffffffffffffffffffffffffffffffffffffff168173ffffffffffffffffffffffffffffffffffffffff16141561089d576040517f08c379a0000000000000000000000000000000000000000000000000000000008152600401610894906123d1565b60405180910390fd5b80915050919050565b60008073ffffffffffffffffffffffffffffffffffffffff168273ffffffffffffffffffffffffffffffffffffffff161415610917576040517f08c379a000000000000000000000000000000000000000000000000000000000815260040161090e90612463565b60405180910390fd5b600460008373ffffffffffffffffffffffffffffffffffffffff1673ffffffffffffffffffffffffffffffffffffffff168152602001908152602001600020549050919050565b6109666110bb565b6109706000611139565b565b60008060009054906101000a900473ffffffffffffffffffffffffffffffffffffffff16905090565b6060600280546109aa9061219d565b80601f01602080910402602001604051908101604052809291908181526020018280546109d69061219d565b8015610a235780601f106109f857610100808354040283529160200191610a23565b820191906000526020600020905b815481529060010190602001808311610a0657829003601f168201915b5050505050905090565b610a3f610a38610ce0565b83836111fd565b5050565b610a54610a4e610ce0565b83610dbf565b610a93576040517f08c379a0000000000000000000000000000000000000000000000000000000008152600401610a8a90612365565b60405180910390fd5b610a9f8484848461136a565b50505050565b6060610ab082610c95565b6000610aba6113c6565b90506000815111610ada5760405180602001604052806000815250610b05565b80610ae484611458565b604051602001610af59291906124bf565b6040516020818303038152906040525b915050919050565b60085481565b6000600660008473ffffffffffffffffffffffffffffffffffffffff1673ffffffffffffffffffffffffffffffffffffffff16815260200190815260200160002060008373ffffffffffffffffffffffffffffffffffffffff1673ffffffffffffffffffffffffffffffffffffffff16815260200190815260200160002060009054906101000a900460ff16905092915050565b610baf6110bb565b600073ffffffffffffffffffffffffffffffffffffffff168173ffffffffffffffffffffffffffffffffffffffff161415610c1f576040517f08c379a0000000000000000000000000000000000000000000000000000000008152600401610c1690612555565b60405180910390fd5b610c2881611139565b50565b60007f01ffc9a7000000000000000000000000000000000000000000000000000000007bffffffffffffffffffffffffffffffffffffffffffffffffffffffff1916827bffffffffffffffffffffffffffffffffffffffffffffffffffffffff1916149050919050565b610c9e816115b9565b610cdd576040517f08c379a0000000000000000000000000000000000000000000000000000000008152600401610cd4906123d1565b60405180910390fd5b50565b600033905090565b816005600083815260200190815260200160002060006101000a81548173ffffffffffffffffffffffffffffffffffffffff021916908373ffffffffffffffffffffffffffffffffffffffff160217905550808273ffffffffffffffffffffffffffffffffffffffff16610d5b836107f4565b73ffffffffffffffffffffffffffffffffffffffff167f8c5be1e5ebec7d5bd14f71427d1e84f3dd0314c0f7b2291e5b200ac8c7c3b92560405160405180910390a45050565b610dbb828260405180602001604052806000815250611625565b5050565b600080610dcb836107f4565b90508073ffffffffffffffffffffffffffffffffffffffff168473ffffffffffffffffffffffffffffffffffffffff161480610e0d5750610e0c8185610b13565b5b80610e4b57508373ffffffffffffffffffffffffffffffffffffffff16610e33846105e7565b73ffffffffffffffffffffffffffffffffffffffff16145b91505092915050565b8273ffffffffffffffffffffffffffffffffffffffff16610e74826107f4565b73ffffffffffffffffffffffffffffffffffffffff1614610eca576040517f08c379a0000000000000000000000000000000000000000000000000000000008152600401610ec1906125e7565b60405180910390fd5b600073ffffffffffffffffffffffffffffffffffffffff168273ffffffffffffffffffffffffffffffffffffffff161415610f3a576040517f08c379a0000000000000000000000000000000000000000000000000000000008152600401610f3190612679565b60405180910390fd5b610f45838383611680565b610f50600082610ce8565b6001600460008573ffffffffffffffffffffffffffffffffffffffff1673ffffffffffffffffffffffffffffffffffffffff1681526020019081526020016000206000828254610fa091906126c8565b925050819055506001600460008473ffffffffffffffffffffffffffffffffffffffff1673ffffffffffffffffffffffffffffffffffffffff1681526020019081526020016000206000828254610ff791906126fc565b92505081905550816003600083815260200190815260200160002060006101000a81548173ffffffffffffffffffffffffffffffffffffffff021916908373ffffffffffffffffffffffffffffffffffffffff160217905550808273ffffffffffffffffffffffffffffffffffffffff168473ffffffffffffffffffffffffffffffffffffffff167fddf252ad1be2c89b69c2b068fc378daa952ba7f163c4a11628f55a4df523b3ef60405160405180910390a46110b6838383611685565b505050565b6110c3610ce0565b73ffffffffffffffffffffffffffffffffffffffff166110e1610972565b73ffffffffffffffffffffffffffffffffffffffff1614611137576040517f08c379a000000000000000000000000000000000000000000000000000000000815260040161112e9061279e565b60405180910390fd5b565b60008060009054906101000a900473ffffffffffffffffffffffffffffffffffffffff169050816000806101000a81548173ffffffffffffffffffffffffffffffffffffffff021916908373ffffffffffffffffffffffffffffffffffffffff1602179055508173ffffffffffffffffffffffffffffffffffffffff168173ffffffffffffffffffffffffffffffffffffffff167f8be0079c531659141344cd1fd0a4f28419497f9722a3daafe3b4186f6b6457e060405160405180910390a35050565b8173ffffffffffffffffffffffffffffffffffffffff168373ffffffffffffffffffffffffffffffffffffffff16141561126c576040517f08c379a00000000000000000000000000000000000000000000000000000000081526004016112639061280a565b60405180910390fd5b80600660008573ffffffffffffffffffffffffffffffffffffffff1673ffffffffffffffffffffffffffffffffffffffff16815260200190815260200160002060008473ffffffffffffffffffffffffffffffffffffffff1673ffffffffffffffffffffffffffffffffffffffff16815260200190815260200160002060006101000a81548160ff0219169083151502179055508173ffffffffffffffffffffffffffffffffffffffff168373ffffffffffffffffffffffffffffffffffffffff167f17307eab39ab6107e8899845ad3d59bd9653f200f220920489ca2b5937696c318360405161135d9190611b75565b60405180910390a3505050565b611375848484610e54565b6113818484848461168a565b6113c0576040517f08c379a00000000000000000000000000000000000000000000000000000000081526004016113b79061289c565b60405180910390fd5b50505050565b6060600780546113d59061219d565b80601f01602080910402602001604051908101604052809291908181526020018280546114019061219d565b801561144e5780601f106114235761010080835404028352916020019161144e565b820191906000526020600020905b81548152906001019060200180831161143157829003601f168201915b5050505050905090565b606060008214156114a0576040518060400160405280600181526020017f300000000000000000000000000000000000000000000000000000000000000081525090506115b4565b600082905060005b600082146114d25780806114bb906128bc565b915050600a826114cb9190612934565b91506114a8565b60008167ffffffffffffffff8111156114ee576114ed611dd3565b5b6040519080825280601f01601f1916602001820160405280156115205781602001600182028036833780820191505090505b5090505b600085146115ad5760018261153991906126c8565b9150600a856115489190612965565b603061155491906126fc565b60f81b81838151811061156a57611569612996565b5b60200101907effffffffffffffffffffffffffffffffffffffffffffffffffffffffffffff1916908160001a905350600a856115a69190612934565b9450611524565b8093505050505b919050565b60008073ffffffffffffffffffffffffffffffffffffffff166003600084815260200190815260200160002060009054906101000a900473ffffffffffffffffffffffffffffffffffffffff1673ffffffffffffffffffffffffffffffffffffffff1614159050919050565b61162f8383611821565b61163c600084848461168a565b61167b576040517f08c379a00000000000000000000000000000000000000000000000000000000081526004016116729061289c565b60405180910390fd5b505050565b505050565b505050565b60006116ab8473ffffffffffffffffffffffffffffffffffffffff166119fb565b15611814578373ffffffffffffffffffffffffffffffffffffffff1663150b7a026116d4610ce0565b8786866040518563ffffffff1660e01b81526004016116f69493929190612a1a565b602060405180830381600087803b15801561171057600080fd5b505af192505050801561174157506040513d601f19601f8201168201806040525081019061173e9190612a7b565b60015b6117c4573d8060008114611771576040519150601f19603f3d011682016040523d82523d6000602084013e611776565b606091505b506000815114156117bc576040517f08c379a00000000000000000000000000000000000000000000000000000000081526004016117b39061289c565b60405180910390fd5b805181602001fd5b63150b7a0260e01b7bffffffffffffffffffffffffffffffffffffffffffffffffffffffff1916817bffffffffffffffffffffffffffffffffffffffffffffffffffffffff191614915050611819565b600190505b949350505050565b600073ffffffffffffffffffffffffffffffffffffffff168273ffffffffffffffffffffffffffffffffffffffff161415611891576040517f08c379a000000000000000000000000000000000000000000000000000000000815260040161188890612af4565b60405180910390fd5b61189a816115b9565b156118da576040517f08c379a00000000000000000000000000000000000000000000000000000000081526004016118d190612b60565b60405180910390fd5b6118e660008383611680565b6001600460008473ffffffffffffffffffffffffffffffffffffffff1673ffffffffffffffffffffffffffffffffffffffff168152602001908152602001600020600082825461193691906126fc565b92505081905550816003600083815260200190815260200160002060006101000a81548173ffffffffffffffffffffffffffffffffffffffff021916908373ffffffffffffffffffffffffffffffffffffffff160217905550808273ffffffffffffffffffffffffffffffffffffffff16600073ffffffffffffffffffffffffffffffffffffffff167fddf252ad1be2c89b69c2b068fc378daa952ba7f163c4a11628f55a4df523b3ef60405160405180910390a46119f760008383611685565b5050565b6000808273ffffffffffffffffffffffffffffffffffffffff163b119050919050565b828054611a2a9061219d565b90600052602060002090601f016020900481019282611a4c5760008555611a93565b82601f10611a6557805160ff1916838001178555611a93565b82800160010185558215611a93579182015b82811115611a92578251825591602001919060010190611a77565b5b509050611aa09190611aa4565b5090565b5b80821115611abd576000816000905550600101611aa5565b5090565b6000604051905090565b600080fd5b600080fd5b60007fffffffff0000000000000000000000000000000000000000000000000000000082169050919050565b611b0a81611ad5565b8114611b1557600080fd5b50565b600081359050611b2781611b01565b92915050565b600060208284031215611b4357611b42611acb565b5b6000611b5184828501611b18565b91505092915050565b60008115159050919050565b611b6f81611b5a565b82525050565b6000602082019050611b8a6000830184611b66565b92915050565b600081519050919050565b600082825260208201905092915050565b60005b83811015611bca578082015181840152602081019050611baf565b83811115611bd9576000848401525b50505050565b6000601f19601f8301169050919050565b6000611bfb82611b90565b611c058185611b9b565b9350611c15818560208601611bac565b611c1e81611bdf565b840191505092915050565b60006020820190508181036000830152611c438184611bf0565b905092915050565b6000819050919050565b611c5e81611c4b565b8114611c6957600080fd5b50565b600081359050611c7b81611c55565b92915050565b600060208284031215611c9757611c96611acb565b5b6000611ca584828501611c6c565b91505092915050565b600073ffffffffffffffffffffffffffffffffffffffff82169050919050565b6000611cd982611cae565b9050919050565b611ce981611cce565b82525050565b6000602082019050611d046000830184611ce0565b92915050565b611d1381611cce565b8114611d1e57600080fd5b50565b600081359050611d3081611d0a565b92915050565b60008060408385031215611d4d57611d4c611acb565b5b6000611d5b85828601611d21565b9250506020611d6c85828601611c6c565b9150509250929050565b600080600060608486031215611d8f57611d8e611acb565b5b6000611d9d86828701611d21565b9350506020611dae86828701611d21565b9250506040611dbf86828701611c6c565b9150509250925092565b600080fd5b600080fd5b7f4e487b7100000000000000000000000000000000000000000000000000000000600052604160045260246000fd5b611e0b82611bdf565b810181811067ffffffffffffffff82111715611e2a57611e29611dd3565b5b80604052505050565b6000611e3d611ac1565b9050611e498282611e02565b919050565b600067ffffffffffffffff821115611e6957611e68611dd3565b5b611e7282611bdf565b9050602081019050919050565b82818337600083830152505050565b6000611ea1611e9c84611e4e565b611e33565b905082815260208101848484011115611ebd57611ebc611dce565b5b611ec8848285611e7f565b509392505050565b600082601f830112611ee557611ee4611dc9565b5b8135611ef5848260208601611e8e565b91505092915050565b600060208284031215611f1457611f13611acb565b5b600082013567ffffffffffffffff811115611f3257611f31611ad0565b5b611f3e84828501611ed0565b91505092915050565b600060208284031215611f5d57611f5c611acb565b5b6000611f6b84828501611d21565b91505092915050565b611f7d81611c4b565b82525050565b6000602082019050611f986000830184611f74565b92915050565b611fa781611b5a565b8114611fb257600080fd5b50565b600081359050611fc481611f9e565b92915050565b60008060408385031215611fe157611fe0611acb565b5b6000611fef85828601611d21565b925050602061200085828601611fb5565b9150509250929050565b600067ffffffffffffffff82111561202557612024611dd3565b5b61202e82611bdf565b9050602081019050919050565b600061204e6120498461200a565b611e33565b90508281526020810184848401111561206a57612069611dce565b5b612075848285611e7f565b509392505050565b600082601f83011261209257612091611dc9565b5b81356120a284826020860161203b565b91505092915050565b600080600080608085870312156120c5576120c4611acb565b5b60006120d387828801611d21565b94505060206120e487828801611d21565b93505060406120f587828801611c6c565b925050606085013567ffffffffffffffff81111561211657612115611ad0565b5b6121228782880161207d565b91505092959194509250565b6000806040838503121561214557612144611acb565b5b600061215385828601611d21565b925050602061216485828601611d21565b9150509250929050565b7f4e487b7100000000000000000000000000000000000000000000000000000000600052602260045260246000fd5b600060028204905060018216806121b557607f821691505b602082108114156121c9576121c861216e565b5b50919050565b7f4552433732313a20617070726f76616c20746f2063757272656e74206f776e6560008201527f7200000000000000000000000000000000000000000000000000000000000000602082015250565b600061222b602183611b9b565b9150612236826121cf565b604082019050919050565b6000602082019050818103600083015261225a8161221e565b9050919050565b7f4552433732313a20617070726f76652063616c6c6572206973206e6f7420746f60008201527f6b656e206f776e6572206e6f7220617070726f76656420666f7220616c6c0000602082015250565b60006122bd603e83611b9b565b91506122c882612261565b604082019050919050565b600060208201905081810360008301526122ec816122b0565b9050919050565b7f4552433732313a2063616c6c6572206973206e6f7420746f6b656e206f776e6560008201527f72206e6f7220617070726f766564000000000000000000000000000000000000602082015250565b600061234f602e83611b9b565b915061235a826122f3565b604082019050919050565b6000602082019050818103600083015261237e81612342565b9050919050565b7f4552433732313a20696e76616c696420746f6b656e2049440000000000000000600082015250565b60006123bb601883611b9b565b91506123c682612385565b602082019050919050565b600060208201905081810360008301526123ea816123ae565b9050919050565b7f4552433732313a2061646472657373207a65726f206973206e6f74206120766160008201527f6c6964206f776e65720000000000000000000000000000000000000000000000602082015250565b600061244d602983611b9b565b9150612458826123f1565b604082019050919050565b6000602082019050818103600083015261247c81612440565b9050919050565b600081905092915050565b600061249982611b90565b6124a38185612483565b93506124b3818560208601611bac565b80840191505092915050565b60006124cb828561248e565b91506124d7828461248e565b91508190509392505050565b7f4f776e61626c653a206e6577206f776e657220697320746865207a65726f206160008201527f6464726573730000000000000000000000000000000000000000000000000000602082015250565b600061253f602683611b9b565b915061254a826124e3565b604082019050919050565b6000602082019050818103600083015261256e81612532565b9050919050565b7f4552433732313a207472616e736665722066726f6d20696e636f72726563742060008201527f6f776e6572000000000000000000000000000000000000000000000000000000602082015250565b60006125d1602583611b9b565b91506125dc82612575565b604082019050919050565b60006020820190508181036000830152612600816125c4565b9050919050565b7f4552433732313a207472616e7366657220746f20746865207a65726f2061646460008201527f7265737300000000000000000000000000000000000000000000000000000000602082015250565b6000612663602483611b9b565b915061266e82612607565b604082019050919050565b6000602082019050818103600083015261269281612656565b9050919050565b7f4e487b7100000000000000000000000000000000000000000000000000000000600052601160045260246000fd5b60006126d382611c4b565b91506126de83611c4b565b9250828210156126f1576126f0612699565b5b828203905092915050565b600061270782611c4b565b915061271283611c4b565b9250827fffffffffffffffffffffffffffffffffffffffffffffffffffffffffffffffff0382111561274757612746612699565b5b828201905092915050565b7f4f776e61626c653a2063616c6c6572206973206e6f7420746865206f776e6572600082015250565b6000612788602083611b9b565b915061279382612752565b602082019050919050565b600060208201905081810360008301526127b78161277b565b9050919050565b7f4552433732313a20617070726f766520746f2063616c6c657200000000000000600082015250565b60006127f4601983611b9b565b91506127ff826127be565b602082019050919050565b60006020820190508181036000830152612823816127e7565b9050919050565b7f4552433732313a207472616e7366657220746f206e6f6e20455243373231526560008201527f63656976657220696d706c656d656e7465720000000000000000000000000000602082015250565b6000612886603283611b9b565b91506128918261282a565b604082019050919050565b600060208201905081810360008301526128b581612879565b9050919050565b60006128c782611c4b565b91507fffffffffffffffffffffffffffffffffffffffffffffffffffffffffffffffff8214156128fa576128f9612699565b5b600182019050919050565b7f4e487b7100000000000000000000000000000000000000000000000000000000600052601260045260246000fd5b600061293f82611c4b565b915061294a83611c4b565b92508261295a57612959612905565b5b828204905092915050565b600061297082611c4b565b915061297b83611c4b565b92508261298b5761298a612905565b5b828206905092915050565b7f4e487b7100000000000000000000000000000000000000000000000000000000600052603260045260246000fd5b600081519050919050565b600082825260208201905092915050565b60006129ec826129c5565b6129f681856129d0565b9350612a06818560208601611bac565b612a0f81611bdf565b840191505092915050565b6000608082019050612a2f6000830187611ce0565b612a3c6020830186611ce0565b612a496040830185611f74565b8181036060830152612a5b81846129e1565b905095945050505050565b600081519050612a7581611b01565b92915050565b600060208284031215612a9157612a90611acb565b5b6000612a9f84828501612a66565b91505092915050565b7f4552433732313a206d696e7420746f20746865207a65726f2061646472657373600082015250565b6000612ade602083611b9b565b9150612ae982612aa8565b602082019050919050565b60006020820190508181036000830152612b0d81612ad1565b9050919050565b7f4552433732313a20746f6b656e20616c7265616479206d696e74656400000000600082015250565b6000612b4a601c83611b9b565b9150612b5582612b14565b602082019050919050565b60006020820190508181036000830152612b7981612b3d565b905091905056fea264697066735822122003ea031004ba905e3e16817838dce656aee4a7522aa53ca42c8d43a002d528dd64736f6c63430008080033",
  "devdoc": {
    "kind": "dev",
    "methods": {
      "approve(address,uint256)": {
        "details": "See {IERC721-approve}."
      },
      "balanceOf(address)": {
        "details": "See {IERC721-balanceOf}."
      },
      "getApproved(uint256)": {
        "details": "See {IERC721-getApproved}."
      },
      "isApprovedForAll(address,address)": {
        "details": "See {IERC721-isApprovedForAll}."
      },
      "name()": {
        "details": "See {IERC721Metadata-name}."
      },
      "owner()": {
        "details": "Returns the address of the current owner."
      },
      "ownerOf(uint256)": {
        "details": "See {IERC721-ownerOf}."
      },
      "renounceOwnership()": {
        "details": "Leaves the contract without owner. It will not be possible to call `onlyOwner` functions anymore. Can only be called by the current owner. NOTE: Renouncing ownership will leave the contract without an owner, thereby removing any functionality that is only available to the owner."
      },
      "safeTransferFrom(address,address,uint256)": {
        "details": "See {IERC721-safeTransferFrom}."
      },
      "safeTransferFrom(address,address,uint256,bytes)": {
        "details": "See {IERC721-safeTransferFrom}."
      },
      "setApprovalForAll(address,bool)": {
        "details": "See {IERC721-setApprovalForAll}."
      },
      "supportsInterface(bytes4)": {
        "details": "See {IERC165-supportsInterface}."
      },
      "symbol()": {
        "details": "See {IERC721Metadata-symbol}."
      },
      "tokenURI(uint256)": {
        "details": "See {IERC721Metadata-tokenURI}."
      },
      "transferFrom(address,address,uint256)": {
        "details": "See {IERC721-transferFrom}."
      },
      "transferOwnership(address)": {
        "details": "Transfers ownership of the contract to a new account (`newOwner`). Can only be called by the current owner."
      }
    },
    "version": 1
  },
  "userdoc": {
    "kind": "user",
    "methods": {},
    "version": 1
  },
  "storageLayout": {
    "storage": [
      {
        "astId": 7,
        "contract": "contracts/PyjamasNFT.sol:PyjamasNFT",
        "label": "_owner",
        "offset": 0,
        "slot": "0",
        "type": "t_address"
      },
      {
        "astId": 138,
        "contract": "contracts/PyjamasNFT.sol:PyjamasNFT",
        "label": "_name",
        "offset": 0,
        "slot": "1",
        "type": "t_string_storage"
      },
      {
        "astId": 140,
        "contract": "contracts/PyjamasNFT.sol:PyjamasNFT",
        "label": "_symbol",
        "offset": 0,
        "slot": "2",
        "type": "t_string_storage"
      },
      {
        "astId": 144,
        "contract": "contracts/PyjamasNFT.sol:PyjamasNFT",
        "label": "_owners",
        "offset": 0,
        "slot": "3",
        "type": "t_mapping(t_uint256,t_address)"
      },
      {
        "astId": 148,
        "contract": "contracts/PyjamasNFT.sol:PyjamasNFT",
        "label": "_balances",
        "offset": 0,
        "slot": "4",
        "type": "t_mapping(t_address,t_uint256)"
      },
      {
        "astId": 152,
        "contract": "contracts/PyjamasNFT.sol:PyjamasNFT",
        "label": "_tokenApprovals",
        "offset": 0,
        "slot": "5",
        "type": "t_mapping(t_uint256,t_address)"
      },
      {
        "astId": 158,
        "contract": "contracts/PyjamasNFT.sol:PyjamasNFT",
        "label": "_operatorApprovals",
        "offset": 0,
        "slot": "6",
        "type": "t_mapping(t_address,t_mapping(t_address,t_bool))"
      },
      {
        "astId": 1729,
        "contract": "contracts/PyjamasNFT.sol:PyjamasNFT",
        "label": "baseURI",
        "offset": 0,
        "slot": "7",
        "type": "t_string_storage"
      },
      {
        "astId": 1732,
        "contract": "contracts/PyjamasNFT.sol:PyjamasNFT",
        "label": "maxSupply",
        "offset": 0,
        "slot": "8",
        "type": "t_uint256"
      }
    ],
    "types": {
      "t_address": {
        "encoding": "inplace",
        "label": "address",
        "numberOfBytes": "20"
      },
      "t_bool": {
        "encoding": "inplace",
        "label": "bool",
        "numberOfBytes": "1"
      },
      "t_mapping(t_address,t_bool)": {
        "encoding": "mapping",
        "key": "t_address",
        "label": "mapping(address => bool)",
        "numberOfBytes": "32",
        "value": "t_bool"
      },
      "t_mapping(t_address,t_mapping(t_address,t_bool))": {
        "encoding": "mapping",
        "key": "t_address",
        "label": "mapping(address => mapping(address => bool))",
        "numberOfBytes": "32",
        "value": "t_mapping(t_address,t_bool)"
      },
      "t_mapping(t_address,t_uint256)": {
        "encoding": "mapping",
        "key": "t_address",
        "label": "mapping(address => uint256)",
        "numberOfBytes": "32",
        "value": "t_uint256"
      },
      "t_mapping(t_uint256,t_address)": {
        "encoding": "mapping",
        "key": "t_uint256",
        "label": "mapping(uint256 => address)",
        "numberOfBytes": "32",
        "value": "t_address"
      },
      "t_string_storage": {
        "encoding": "bytes",
        "label": "string",
        "numberOfBytes": "32"
      },
      "t_uint256": {
        "encoding": "inplace",
        "label": "uint256",
        "numberOfBytes": "32"
      }
    }
  }
}